{
  "contractName": "ConnectFour",
  "abi": [
    {
      "constant": true,
      "inputs": [],
      "name": "bet",
      "outputs": [
        {
          "name": "",
          "type": "uint256"
        }
      ],
      "payable": false,
      "stateMutability": "view",
      "type": "function"
    },
    {
      "constant": true,
      "inputs": [
        {
          "name": "",
          "type": "uint256"
        },
        {
          "name": "",
          "type": "uint256"
        }
      ],
      "name": "grid",
      "outputs": [
        {
          "name": "",
          "type": "address"
        }
      ],
      "payable": false,
      "stateMutability": "view",
      "type": "function"
    },
    {
      "constant": true,
      "inputs": [],
      "name": "turn",
      "outputs": [
        {
          "name": "",
          "type": "address"
        }
      ],
      "payable": false,
      "stateMutability": "view",
      "type": "function"
    },
    {
      "inputs": [],
      "payable": true,
      "stateMutability": "payable",
      "type": "constructor"
    },
    {
      "anonymous": false,
      "inputs": [
        {
          "indexed": false,
          "name": "player",
          "type": "address"
        }
      ],
      "name": "NextPlayer",
      "type": "event"
    },
    {
      "anonymous": false,
      "inputs": [
        {
          "indexed": false,
          "name": "player",
          "type": "address"
        }
      ],
      "name": "Winner",
      "type": "event"
    },
    {
      "anonymous": false,
      "inputs": [],
      "name": "Draw",
      "type": "event"
    },
    {
      "constant": false,
      "inputs": [],
      "name": "joinGame",
      "outputs": [],
      "payable": true,
      "stateMutability": "payable",
      "type": "function"
    },
    {
      "constant": true,
      "inputs": [],
      "name": "getGrid",
      "outputs": [
        {
          "name": "",
          "type": "address[6][7]"
        }
      ],
      "payable": false,
      "stateMutability": "view",
      "type": "function"
    },
    {
      "constant": false,
      "inputs": [
        {
          "name": "column",
          "type": "uint8"
        }
      ],
      "name": "dropDisc",
      "outputs": [],
      "payable": false,
      "stateMutability": "nonpayable",
      "type": "function"
    }
  ],
  "bytecode": "0x60806040526000602e60006101000a81548160ff021916908360ff160217905550336000806101000a81548173ffffffffffffffffffffffffffffffffffffffff021916908373ffffffffffffffffffffffffffffffffffffffff1602179055506000809054906101000a900473ffffffffffffffffffffffffffffffffffffffff16600260006101000a81548173ffffffffffffffffffffffffffffffffffffffff021916908373ffffffffffffffffffffffffffffffffffffffff16021790555034602d81905550610ee6806100d86000396000f300608060405260043610610078576000357c0100000000000000000000000000000000000000000000000000000000900463ffffffff16806311610c251461007d578063134000c0146100a8578063146008e31461011e5780638b2999031461019557806391b528b9146101ec578063d4f77b1c1461021c575b600080fd5b34801561008957600080fd5b50610092610226565b6040518082815260200191505060405180910390f35b3480156100b457600080fd5b506100bd61022c565b604051808260076000925b8184101561010e5782846020020151600660200280838360005b838110156100fd5780820151818401526020810190506100e2565b5050505090500192600101926100c8565b9250505091505060405180910390f35b34801561012a57600080fd5b5061015360048036038101908080359060200190929190803590602001909291905050506102e5565b604051808273ffffffffffffffffffffffffffffffffffffffff1673ffffffffffffffffffffffffffffffffffffffff16815260200191505060405180910390f35b3480156101a157600080fd5b506101aa61032e565b604051808273ffffffffffffffffffffffffffffffffffffffff1673ffffffffffffffffffffffffffffffffffffffff16815260200191505060405180910390f35b3480156101f857600080fd5b5061021a600480360381019080803560ff169060200190929190505050610354565b005b6102246106e1565b005b602d5481565b610234610e68565b6003600780602002604051908101604052809291906000905b828210156102dc578382600602016006806020026040519081016040528092919082600680156102c8576020028201915b8160009054906101000a900473ffffffffffffffffffffffffffffffffffffffff1673ffffffffffffffffffffffffffffffffffffffff168152602001906001019080831161027e575b50505050508152602001906001019061024d565b50505050905090565b6003826007811015156102f457fe5b600602018160068110151561030557fe5b016000915091509054906101000a900473ffffffffffffffffffffffffffffffffffffffff1681565b600260009054906101000a900473ffffffffffffffffffffffffffffffffffffffff1681565b60003373ffffffffffffffffffffffffffffffffffffffff16600260009054906101000a900473ffffffffffffffffffffffffffffffffffffffff1673ffffffffffffffffffffffffffffffffffffffff161415156103b257600080fd5b600090505b60068160ff16101561065857600073ffffffffffffffffffffffffffffffffffffffff1660038360ff166007811015156103ed57fe5b600602018260ff1660068110151561040157fe5b0160009054906101000a900473ffffffffffffffffffffffffffffffffffffffff1673ffffffffffffffffffffffffffffffffffffffff16141561064b573360038360ff1660078110151561045257fe5b600602018260ff1660068110151561046657fe5b0160006101000a81548173ffffffffffffffffffffffffffffffffffffffff021916908373ffffffffffffffffffffffffffffffffffffffff160217905550602e600081819054906101000a900460ff168092919060010191906101000a81548160ff021916908360ff16021790555050610504600260009054906101000a900473ffffffffffffffffffffffffffffffffffffffff168383610862565b6000809054906101000a900473ffffffffffffffffffffffffffffffffffffffff1673ffffffffffffffffffffffffffffffffffffffff16600260009054906101000a900473ffffffffffffffffffffffffffffffffffffffff1673ffffffffffffffffffffffffffffffffffffffff1614156105e357600160009054906101000a900473ffffffffffffffffffffffffffffffffffffffff16600260006101000a81548173ffffffffffffffffffffffffffffffffffffffff021916908373ffffffffffffffffffffffffffffffffffffffff160217905550610646565b6000809054906101000a900473ffffffffffffffffffffffffffffffffffffffff16600260006101000a81548173ffffffffffffffffffffffffffffffffffffffff021916908373ffffffffffffffffffffffffffffffffffffffff1602179055505b610658565b80806001019150506103b7565b7f637351f91da430278368fb3e486c8c3da47b2e6ce4d28b2c404cb044702ca7e1600260009054906101000a900473ffffffffffffffffffffffffffffffffffffffff16604051808273ffffffffffffffffffffffffffffffffffffffff1673ffffffffffffffffffffffffffffffffffffffff16815260200191505060405180910390a15050565b6000809054906101000a900473ffffffffffffffffffffffffffffffffffffffff1673ffffffffffffffffffffffffffffffffffffffff163373ffffffffffffffffffffffffffffffffffffffff161415151561073d57600080fd5b600073ffffffffffffffffffffffffffffffffffffffff16600160009054906101000a900473ffffffffffffffffffffffffffffffffffffffff1673ffffffffffffffffffffffffffffffffffffffff1614151561079a57600080fd5b33600160006101000a81548173ffffffffffffffffffffffffffffffffffffffff021916908373ffffffffffffffffffffffffffffffffffffffff1602179055507f637351f91da430278368fb3e486c8c3da47b2e6ce4d28b2c404cb044702ca7e1600160009054906101000a900473ffffffffffffffffffffffffffffffffffffffff16604051808273ffffffffffffffffffffffffffffffffffffffff1673ffffffffffffffffffffffffffffffffffffffff16815260200191505060405180910390a1565b6000806000806000809450859350869250600091505b60068260ff161015610938578773ffffffffffffffffffffffffffffffffffffffff1660038860ff166007811015156108ad57fe5b600602018360ff166006811015156108c157fe5b0160009054906101000a900473ffffffffffffffffffffffffffffffffffffffff1673ffffffffffffffffffffffffffffffffffffffff16141561092657848060010195505060048560ff1614156109215761091c88610da4565b610d9a565b61092b565b600094505b8180600101925050610878565b60009450600090505b60078160ff161015610a01578773ffffffffffffffffffffffffffffffffffffffff1660038260ff1660078110151561097657fe5b600602018760ff1660068110151561098a57fe5b0160009054906101000a900473ffffffffffffffffffffffffffffffffffffffff1673ffffffffffffffffffffffffffffffffffffffff1614156109ef57848060010195505060048560ff1614156109ea576109e588610da4565b610d9a565b6109f4565b600094505b8080600101915050610941565b600094505b60008460ff1614158015610a1e575060008360ff1614155b15610a3a57838060019003945050828060019003935050610a06565b5b60058460ff1611158015610a53575060068360ff1611155b15610b14578773ffffffffffffffffffffffffffffffffffffffff1660038460ff16600781101515610a8157fe5b600602018560ff16600681101515610a9557fe5b0160009054906101000a900473ffffffffffffffffffffffffffffffffffffffff1673ffffffffffffffffffffffffffffffffffffffff161415610afa5760038560ff161415610aed57610ae888610da4565b610d9a565b8480600101955050610aff565b600094505b83806001019450508280600101935050610a3b565b859350869250600094505b60008460ff1614158015610b37575060068360ff1614155b15610b52578380600190039450508280600101935050610b1f565b5b60058460ff1611158015610b6b575060008360ff1610155b8015610b7a575060078360ff16105b15610c3c578773ffffffffffffffffffffffffffffffffffffffff1660038460ff16600781101515610ba857fe5b600602018560ff16600681101515610bbc57fe5b0160009054906101000a900473ffffffffffffffffffffffffffffffffffffffff1673ffffffffffffffffffffffffffffffffffffffff161415610c215760038560ff161415610c1457610c0f88610da4565b610d9a565b8480600101955050610c26565b600094505b8380600101945050828060019003935050610b53565b85935086925060009450602a602e60009054906101000a900460ff1660ff161415610d99576000809054906101000a900473ffffffffffffffffffffffffffffffffffffffff1673ffffffffffffffffffffffffffffffffffffffff166108fc60023073ffffffffffffffffffffffffffffffffffffffff1631811515610cbf57fe5b049081150290604051600060405180830381858888f19350505050158015610ceb573d6000803e3d6000fd5b50600160009054906101000a900473ffffffffffffffffffffffffffffffffffffffff1673ffffffffffffffffffffffffffffffffffffffff166108fc3073ffffffffffffffffffffffffffffffffffffffff16319081150290604051600060405180830381858888f19350505050158015610d6b573d6000803e3d6000fd5b507fd4e78272079f47a2dd45d8f7092ff3a44f8abfcaeb43c35f8f96e14d610dc8fc60405160405180910390a15b5b5050505050505050565b7f745c90b656b4aafe296c8ca35aeacfe56cb96c90e1d320e5da643fff1051b6c081604051808273ffffffffffffffffffffffffffffffffffffffff1673ffffffffffffffffffffffffffffffffffffffff16815260200191505060405180910390a18073ffffffffffffffffffffffffffffffffffffffff166108fc3073ffffffffffffffffffffffffffffffffffffffff16319081150290604051600060405180830381858888f19350505050158015610e64573d6000803e3d6000fd5b5050565b610540604051908101604052806007905b610e81610e97565b815260200190600190039081610e795790505090565b60c0604051908101604052806006906020820280388339808201915050905050905600a165627a7a7230582000fdf430aa19730089a9247ba603ef6510648b1d42fd02ed46941e0b1b30bbc50029",
  "source": "pragma solidity ^0.4.23;\n\ncontract ConnectFour {\n    \n    address red;\n    address yellow;\n    \n    address public turn;\n    address[6][7] public grid;\n\n    uint public bet;\n\n    uint8 counter = 0;\n    \n    event NextPlayer(address player);\n    event Winner(address player);\n    event Draw();\n    \n    // initialize red and set turn\n    constructor() public payable {\n        red = msg.sender;\n        turn = red;\n\tbet = msg.value;\n    }\n\n    // initialize yellow and fire NP event\n    function joinGame() public payable {\n        require(msg.sender != red);\n        require(yellow == address(0));\n\t//\trequire(msg.value == bet);\n        yellow = msg.sender;\n        emit NextPlayer(yellow);\n    }\n\n    // return grid\n    function getGrid() public view returns(address[6][7]) {\n        return grid;\n    }\n\n    // set grid element to proper address, set turn\n    // and fire NP event\n    function dropDisc(uint8 column) public {\n      require( turn == msg.sender );\n      for (uint8 i=0; i < 6; i++) {\n\tif (grid[column][i] == address(0)) {\n\t  grid[column][i] = msg.sender;\n\t  counter++;\n\t  checkForWinner(turn, column, i);\n\t  if (turn == red) {\n\t    turn = yellow;\n\t  } else {\n\t    turn = red;\n\t  }\n\t  break;\t    \n\t}\n      }\n      emit NextPlayer(turn);\n    }\n    \n    function checkForWinner(address player, uint8 column, uint8 row) private {\n      uint8 count = 0;\n      uint8 currentRow = row;\n      uint8 currentColumn = column;\n      \n      // check column\n      for (uint8 j=0 ;j<6 ;j++) {\n\tif (grid[column][j] == player) {\n\t  count++;\n\t  if (count == 4) {\n\t    sendPayout(player);\n\t    return;\n\t  }\n\t} else {\n\t  count = 0;\n\t}\n      }\n      count = 0;\n      \n      // check row\n      for (uint8 k=0; k<7; k++) {\n\tif (grid[k][row] == player) {\n\t  count++;\n\t  if (count == 4) {\n\t    sendPayout(player);\n\t    return;\n\t  }\n\t} else {\n\t  count = 0;\n\t}\n      }\n      count = 0;\n      \n      // check left to right diagonals\n      while (currentRow != 0 && currentColumn != 0) {\n\tcurrentRow--;\n\tcurrentColumn--;\n      }\n      while (currentRow <= 5 && currentColumn <= 6) {\n\tif (grid[currentColumn][currentRow] == player) {\n\t  if (count == 3) {\n\t    sendPayout(player);\n\t    return;\n\t  }\n\t  count++;\n\t} else {\n\t  count = 0;\n\t}\n\tcurrentRow++;\n\tcurrentColumn++;\n      }\n      currentRow = row;\n      currentColumn = column;\n      count = 0;\n\n      // check right to left diagonals\n      while (currentRow != 0 && currentColumn != 6) {\n\tcurrentRow--;\n\tcurrentColumn++;\n      }\n      while (currentRow <= 5 && currentColumn >= 0 && currentColumn < 7) {\n\tif (grid[currentColumn][currentRow] == player) {\n      \t  if (count == 3) {\n      \t    sendPayout(player);\n      \t    return;\n      \t  }\n      \t  count++;\n      \t} else {\n      \t  count = 0;\n\t}\n      \tcurrentRow++;\n      \tcurrentColumn--;\n      }\n      currentRow = row;\n      currentColumn = column;\n      count = 0;\n\n      // check for draw and send each player their money back\n      if (counter == 7*6) {\n\tred.transfer(address(this).balance/2);\n\tyellow.transfer(address(this).balance);\n\temit Draw();\n      }\n      \n    }\n\n    function sendPayout(address player) private {\n      emit Winner(player);\n      player.transfer(address(this).balance);\n    }\n}\n",
  "sourcePath": "/home/eric/CryptoApps/truffle_connect_four/contracts/ConnectFour.sol",
  "compiler": {
    "name": "solc",
    "version": "0.4.24+commit.e67f0147.Emscripten.clang"
  },
  "schemaVersion": "2.0.1",
  "updatedAt": "2018-09-13T23:16:28.541Z"
}